:1000000004C1000033C1000031C100002FC1000055
:100010002DC100002BC1000029C1000027C1000034
:1000200025C1000023C1000021C100001FC1000044
:100030001DC100000C94CE0819C1000017C10000BA
:1000400015C100000C94FE0911C100000FC1000091
:100050000DC100000BC1000009C100000C942D0966
:1000600005C1000003C1000001C10000FFC0000085
:10007000FDC00000FBC00000F9C00000F7C0000098
:100080000C94D109F3C00000F1C00000EFC00000E3
:10009000EDC00000EBC00000E9C00000E7C00000B8
:1000A000E5C00000E3C000000C94A409DFC000001C
:1000B000DDC00000DBC00000D9C000000C9477094F
:1000C000D5C00000D3C00000D1C00000CFC00000E8
:1000D000CDC00000CBC00000C9C00000C7C00000F8
:1000E000C5C0000000002100240027002A002D00C8
:1000F0003000330001010000040107010A01000083
:1001000020002300260029002C002F0032000001CF
:10011000000003010601090100000A0B02090C0D91
:100120000E080703040100000000000000000000AA
:1001300000000000000000000000000000000000BF
:10014000000000001211100000000000000000007C
:10015000000000000000000000000000000001029C
:1001600010202008081020401020408002010201C9
:100170000804020101020408102040808040201081
:1001800008040201800402018040201008040201DA
:100190000804020101020408102040800102040842
:1001A0001020408000002200250028002B002E0097
:1001B0003100340002010000050108010B010505B2
:1001C0000505070508080808020202020A0A0808CD
:1001D00004040404010101010101010103030303FB
:1001E00003030303040707070C0C0C0C0C0C0C0C8A
:1001F0000202020206060606060606060B0B0B0B9B
:100200000B0B0B0B0200650E1C0F11241FBECFEF52
:10021000D1E2DEBFCDBF00E00CBF12E0A0E0B2E053
:10022000E6EFF3E200E00BBF02C007900D92A03BA7
:10023000B107D9F724E0A0EBB2E001C01D92AA30CB
:10024000B207E1F711E0C4E0D1E000E006C0219779
:100250000109802FFE010E94C80FC330D10780E042
:100260000807A9F70E942B0A0C94EA11C9CE8F92B5
:100270009F92AF92BF92FF920F931F93CF93DF9302
:10028000F090E5032FE22F1508F44CC02091E7030E
:1002900008E512E0021B110927FD1395000F111F3D
:1002A000000F111F2091E603C8E8D0E0C21BD1095E
:1002B00027FDD395CC0FDD1FCC0FDD1F4E010D2E7A
:1002C000000CAA08BB089801012E000C440B550B2A
:1002D000281939094A095B09DC010E94850F24EBC2
:1002E00030E040E050E00E945F0F820E931EA41E9B
:1002F000B51E8C169D062CF0E801801691060CF4B4
:10030000E4012297CC0FDD1F2FB7F8948F2D90E0DA
:10031000FC01EE0FFF1FE80FF91FEB5AFC4FD283D1
:10032000C1832FBFDF91CF911F910F91FF90BF909D
:10033000AF909F908F90089596E0899FD0011124EF
:10034000AA53BD4F90967C936E935F9791E09196E0
:100350009C939197E0913303F09134039091320391
:10036000992339F0309751F0811108C08091E20251
:100370001994309719F05C968C91FACF0895CF922A
:10038000DF92EF92FF920F931F9396E0899FF00107
:100390001124EA53FD4F11A2278D30A121303105E0
:1003A00049F178F02230310509F44FC0233031058E
:1003B00009F450C01F910F91FF90EF90DF90CF9004
:1003C00008956623B9F361E070E0B6DF2FB7F894C3
:1003D0008091C2029091C302A091C402B091C50263
:1003E0002FBF80931E0390931F03A0932003B0930D
:1003F0002103E0CF9FB7F894C090C202D090C3020F
:10040000E090C402F090C5029FBF00911E031091BE
:100410001F032091200330912103C01AD10AE20A60
:10042000F30A009130031091310330E020E00C1505
:100430001D052E053F0548F462E070E01F910F9105
:10044000FF90EF90DF90CF9077CF6111B3CF63E053
:1004500070E0F4CF70E060E0F1CF0895AF92BF920A
:10046000CF92DF92EF92FF920F931F93CF93DF9380
:100470006C017B018B01040F151FEB015E01AE18AF
:10048000BF08C017D10759F06991D601ED91FC91D1
:100490000190F081E02DC6011995892B79F7C501EE
:1004A000DF91CF911F910F91FF90EF90DF90CF9050
:1004B000BF90AF9008958150823108F05AC0E82F64
:1004C000F0E08827E959FD4F8F4F0C94C80F870241
:1004D0008B0279027F028302B9028E029402980293
:1004E0009E02A202A602AC02B002B902B402BA0293
:1004F000BE02809180008F77809380000895809164
:1005000080008F7DF9CF80918000877FF5CF84B503
:100510008F7784BD089584B58F7DFBCF8091B00027
:100520008F778093B00008958091B0008F7DF9CFD0
:10053000809190008F778093900008958091900033
:100540008F7DF9CF80919000877FF5CF8091A000BB
:100550008F778093A00008958091A0008F7DF9CFC0
:100560008091A000877FF5CF809120018F778093C5
:1005700020010895809120018F7DF9CF8091200185
:10058000877FF5CFCF93DF93282F30E0F901E85E26
:10059000FE4F8491F901E25AFE4FD491F901E254E1
:1005A000FE4FC491CC2399F0811185DFEC2FF0E050
:1005B000EE0FFF1FE250FF4FA591B491EC91ED2398
:1005C00081E090E009F480E0DF91CF91089580E030
:1005D00090E0FACF862FD6CF1F93CF93DF93282FAB
:1005E00030E0F901E85EFE4F8491F901E25AFE4FD6
:1005F000D491F901E254FE4FC491CC23A1F0162FFF
:10060000811159DFEC2FF0E0EE0FFF1FEC55FE4F8C
:10061000A591B4918FB7F894EC91111108C0D095C1
:10062000DE23DC938FBFDF91CF911F910895DE2BE6
:10063000F8CF862F642FD0CF9091150289130DC06B
:10064000E4E0F2E0E4919FEF90931502E230D9F0FC
:1006500030F4EE2379F0E13081F060E0BDCFE4309A
:1006600049F110F1E530C9F7909173009D7F9093A7
:100670007300F3CF10926E00F0CF90916F009D7FCA
:1006800090936F00EACF909170009D7F90937000DF
:1006900091E09093B0009091B100987F9460909316
:1006A000B1001092B300D9CF909171009D7F9093CB
:1006B0007100D3CF909172009D7F90937200CDCF47
:1006C000CF93DF9390E0FC01E25AFE4F24918254D5
:1006D0009E4FFC0184918823C9F090E0880F991FF8
:1006E000FC01EC51FF4FA591B491FC01EC55FE4F7C
:1006F000C591D49161110DC09FB7F8948C9120954C
:1007000082238C938881282328839FBFDF91CF91F8
:100710000895623051F49FB7F8943C91822F8095F0
:1007200083238C93E8812E2BEFCF8FB7F894EC9135
:100730002E2B2C938FBFEACFCF9380911502873158
:1007400021F08F3F51F1CF910895E4E0F2E0C491A0
:10075000C7FDF9CF61E087E1B3DFCC2309F4EFC037
:10076000C23009F003C18091B100887F836080931B
:10077000B10089EF8093B3008FEF9FEFDC0180938E
:10078000490390934A03A0934B03B0934C03809189
:100790007000826080937000D6CF87E1809315024D
:1007A000E4E0F2E0C4918C2FCF3F69F2C23009F44B
:1007B00067C058F4CC2371F1C13009F443C087FD00
:1007C000C2CF61E087E17CDFCBCFC43009F499C0B0
:1007D00008F478C0C53099F71092200110922101D9
:1007E00080912101886080932101809121018160A5
:1007F00080932101E5EDF1E0E491F0E0EE0FFF1FC1
:10080000EC55FE4F85919491E5E7F1E0E491E0939A
:100810003503A0CF14BC15BC84B5826084BD85B5FA
:10082000816085BDE5EDF1E0E491F0E0EE0FFF1FA2
:10083000EC55FE4F85919491E5E7F1E0E491E0936A
:100840003C0388CF1092800010928100809181003B
:100850008860809381008091810081608093810015
:10086000E5EDF1E0E491F0E0EE0FFF1FEC55FE4FF7
:1008700085919491E5E7F1E0E491E0933B036ACF41
:100880001092B0001092B1008091B000826080930D
:10089000B0008091B10081608093B100E5EDF1E09E
:1008A000E491F0E0EE0FFF1FEC55FE4F859194911F
:1008B00090933A0380933903E5E7F1E0E491E09304
:1008C000380348CF109290001092910080919100CF
:1008D0008860809391008091910081608093910065
:1008E000E5EDF1E0E491F0E0EE0FFF1FEC55FE4F77
:1008F00085919491E5E7F1E0E491E0933703C3E05B
:1009000029CF1092A0001092A1008091A1008860D0
:100910008093A1008091A10081608093A100E5ED0A
:10092000F1E0E491F0E0EE0FFF1FEC55FE4F8591F2
:100930009491E5E7F1E0E491E09336030BCF85B5C0
:10094000887F836085BD8CE787BD8FEF9FEFDC01DB
:100950008093510390935203A0935303B093540395
:1009600080916E00826080936E00EDCEC130E9F41C
:1009700080918100887F8160809381008FE39FE177
:1009800090938900809388008FEF9FEFDC01809324
:100990004D0390934E03A0934F03B0935003809167
:1009A0006F00826080936F00CECEC330E9F48091F7
:1009B0009100887F8160809391008FE39FE1909305
:1009C0009900809398008FEF9FEFDC01809345039F
:1009D00090934603A0934703B0934803809171001E
:1009E000826080937100AFCEC430E9F48091A100A1
:1009F000887F81608093A1008FE39FE19093A9009D
:100A00008093A8008FEF9FEFDC01809341039093C8
:100A10004203A0934303B093440380917200826029
:100A20008093720090CEC530E9F480912101887FD7
:100A30008160809321018FE39FE19093290180934E
:100A400028018FEF9FEFDC0180933D0390933E03DD
:100A5000A0933F03B0934003809173008260809322
:100A6000730071CEC23091F034F4CC2369F0C13000
:100A700009F069CE83CFC43009F4BECF0CF49DCF0A
:100A8000C53009F060CED7CF8FE35ECF8FE372CE53
:100A9000862F642F15CE3FB7F8948091B6029091BF
:100AA000B702A091B802B091B90226B5A89B05C0C3
:100AB0002F3F19F00196A11DB11D3FBFBA2FA92FDD
:100AC000982F8827BC01CD01620F711D811D911DDA
:100AD00042E0660F771F881F991F4A95D1F7089546
:100AE0008F929F92AF92BF92CF92DF92EF92FF923E
:100AF0004B015C01D0DF6B017C01CDDF6C197D09FE
:100B00008E099F09683E734081059105B0F321E08D
:100B1000821A9108A108B10888EEC80E83E0D81E99
:100B2000E11CF11C81149104A104B10431F7FF9080
:100B3000EF90DF90CF90BF90AF909F908F900895EF
:100B4000AF92BF92CF92DF92EF92FF920F931F93DB
:100B5000CF93DF936B017A01EC01CF54DD4F2881F5
:100B60003CE0389F8001399F100D1124A090B00205
:100B7000B12C27FF1FC0FB011182108288818F5F7B
:100B8000888388819801280F311D87FD3A95F601E9
:100B90002A153B051CF488818C30BCF18081918141
:100BA000049680349C4908F471C0F60180819181DB
:100BB00004966EC088819801280F311D87FD3A95F3
:100BC0002A153B05DCF68881A801480F511D87FDD9
:100BD0005A95FA01EE0FFF1FE40FF51FEB5AFC4F79
:100BE000808186FFCBCF8881F801E80FF11D87FD5A
:100BF000FA95CF01EE0FFF1FE80FF91FEB5AFC4FDC
:100C0000808160E08F73E8DCB9CF80819181288199
:100C1000A801420F511D27FD5A959A01FA01EE0FC6
:100C2000FF1FE20FF31FEB5AFC4F21813281820F2D
:100C3000931FF7019183808388819801280F311DCC
:100C400087FD3A95F901EE0FFF1FE20FF31FEB5AF4
:100C5000FC4F808186FF21C08881080F111D87FD10
:100C60001A95F801EE0FFF1FE00FF11FEB5AFC4F32
:100C7000808161E08F73DF91CF911F910F91FF9081
:100C8000EF90DF90CF90BF90AF90A6CC80E49CE92E
:100C9000F701918380838FEF8883DF91CF911F913C
:100CA0000F91FF90EF90DF90CF90BF90AF9008959D
:100CB00090E080E00895FC0101900020E9F7319771
:100CC000AF01481B590BBC018EEE93E0C7CB8F924E
:100CD0009F92AF92BF920F931F93CF93DF93CDB7A5
:100CE000DEB7A1970FB6F894DEBF0FBECDBF19A235
:100CF000423008F44AE08E010F5D1F4F842E912C84
:100D0000B12CA12CA50194010E948B0FE62FB901F3
:100D1000CA01EA30ECF4E05DD801EE938D01232B9B
:100D2000242B252B79F790E080E0109711F0CD016E
:100D3000C2DFA1960FB6F894DEBF0FBECDBFDF9124
:100D4000CF911F910F91BF90AF909F908F9008957A
:100D5000E95CE2CFFC0180819181009711F00C9455
:100D60006C100895CF93DF93EC0160E08E8134DC4A
:100D700061E08E8131DC60E08E812EDC8BE891E0D9
:100D80000197F1F7DF91CF910895CF92DF92EF9223
:100D9000FF920F931F93CF93DF936C017C0187E049
:100DA000E80EF11CD0E0C0E0062F10E0B8010C2ED8
:100DB00002C0759567950A94E2F76170F701819119
:100DC0007F010ADC2196C430D10581F7C601DF918D
:100DD000CF911F910F91FF90EF90DF90CF90C2CFF6
:100DE000CF92DF92EF92FF920F931F93CF93DF93F7
:100DF000EC01F62E642F8C81EFDB8D818F3F11F09B
:100E000060E0EADB0F2D10E08F8584FF23C06E01C8
:100E100087E0C80ED11CF12CE12CB8010E2C02C0C9
:100E2000759567950A94E2F76170F60181916F01FB
:100E3000D3DBFFEFEF1AFF0A88E0E816F10469F749
:100E4000CE01DF91CF911F910F91FF90EF90DF9036
:100E5000CF9088CFB80184E0759567958A95E1F7C2
:100E6000CE0193DF6F2DCE01DF91CF911F910F91B6
:100E7000FF90EF90DF90CF9088CF40E0682F8EEE0C
:100E800093E0AECF81E0F9DF8BE39FE10197F1F7CB
:100E90000895CF93DF93823029F49091FD039860F9
:100EA0009093FD03809301041092020480E48093E8
:100EB000030480E18093040480E58093050461E0ED
:100EC0008091F203FDDB8091F3038F3F11F061E02D
:100ED000F7DB61E08091F403F3DBCEEED3E09E011B
:100EE0002E5E33408091FD0384FD0AC084E090E0D3
:100EF0002196281739073CF461E08E81E1DBEFCFC2
:100F000088E090E0F5CF8BE39DE00197F1F760E09A
:100F10008091F20361DB60E08091F4035DDB8091FE
:100F2000F3038F3F11F060E057DB8091FD0384FDF8
:100F30002CC063E08EEE93E028DFCBE4D6E4CE0154
:100F40000197F1F763E08EEE93E01FDF2197F1F751
:100F500063E08EEE93E019DF83E592E00197F1F70D
:100F600062E08EEE93E011DF8091FD03806285DF09
:100F700084E08093FE038CE080DF84DF82E0809356
:100F8000FF0386E0DF91CF9178CF806276DF8BE43C
:100F900096E40197F1F78091FD0380626EDF83E5AF
:100FA00092E00197F1F78091FD03806266DFDCCF6C
:100FB00090910104891710F08FEF890FE82FF0E06E
:100FC000E251FC4F8489806858CF41E009DF81E01D
:100FD00090E00895CF92DF92EF92FF926B017C0137
:100FE00041E06DE28EEE93E0FBDE66277727CB01D2
:100FF0006C197D098E099F094AE069DE0196FF9010
:10100000EF90DF90CF900895FC0124813581232B50
:1010100039F421E0FB018081882349F020E007C0FA
:10102000808191810E94DA1121E0892BB9F7822F0A
:1010300008950F931F93CF93DF93EC0188819981DB
:10104000009759F02A813B812617370730F081E05D
:10105000DF91CF911F910F9108958B016F5F7F4FAB
:101060000E94F510009759F0998388831B830A83A7
:101070002C813D81232B59F7FC011082E8CF80E0C1
:10108000E7CFEF92FF920F931F93CF93DF93EC0183
:101090007B018A01BA01CDDF28813981811114C019
:1010A0002115310519F0C9010E946C1019821882AE
:1010B0001D821C821B821A82CE01DF91CF911F916B
:1010C0000F91FF90EF9008951D830C83B701C90124
:1010D0000E94E311F1CFFB0101900020E9F7319765
:1010E000AF01461B570BCDCFCF92DF92EF92FF920D
:1010F0000F931F93CF93DF93EC016B017A01461797
:10110000570720F48D2D6A01E62EF82E19821882D9
:101110001B821A821D821C8250E040E065E472E06E
:10112000CE01AFDF0091EC031091ED03C016D106A4
:10113000F8F4E016F10608F48701E091E803F09175
:10114000E903E00FF11FF08010826091E8037091D5
:10115000E9036C0D7D1D61157105A1F0CE01BBDFAA
:101160008091E8039091E903080F191FF801F082BC
:10117000CE01DF91CF911F910F91FF90EF90DF9003
:10118000CF90089588819981009709F0A5D7198299
:1011900018821D821C821B821A82E2CF1F920F923C
:1011A0000FB60F9211240BB60F922F933F934F93CC
:1011B0005F936F937F938F939F93AF93BF93EF93BF
:1011C000FF938091490390914A03A0914B03B09102
:1011D0004C03892B8A2B8B2BE1F190913803E09102
:1011E0003903F0913A0380818927808380914903F4
:1011F00090914A03A0914B03B0914C031816190625
:101200001A061B069CF48091490390914A03A09111
:101210004B03B0914C030197A109B1098093490395
:1012200090934A03A0934B03B0934C03FF91EF912B
:10123000BF91AF919F918F917F916F915F914F91EE
:101240003F912F910F900BBE0F900FBE0F901F90EC
:10125000189580911502F0D9E9CF1F920F920FB621
:101260000F9211242F933F938F939F93AF93BF932C
:101270008091C2029091C302A091C402B091C502B4
:101280003091B50223E0230F2D3758F50196A11DAB
:10129000B11D2093B5028093C2029093C302A09324
:1012A000C402B093C5028091B6029091B702A0919A
:1012B000B802B091B9020196A11DB11D8093B6028A
:1012C0009093B702A093B802B093B902BF91AF91C7
:1012D0009F918F913F912F910F900FBE0F901F9074
:1012E000189526E8230F0296A11DB11DD2CF1F929B
:1012F0000F920FB60F9211240BB60F922F933F93BC
:101300004F935F936F937F938F939F93AF93BF930D
:10131000EF93FF9348E251E064E271E090E080E0F7
:101320000FDCFF91EF91BF91AF919F918F917F91D2
:101330006F915F914F913F912F910F900BBE0F9046
:101340000FBE0F901F9018951F920F920FB60F921D
:1013500011240BB60F922F933F934F935F936F938C
:101360007F938F939F93AF93BF93EF93FF9348EA3D
:1013700050E064EA70E083E090E0E2DBFF91EF91FF
:10138000BF91AF919F918F917F916F915F914F919D
:101390003F912F910F900BBE0F900FBE0F901F909B
:1013A00018951F920F920FB60F9211240BB60F9241
:1013B0002F933F934F935F936F937F938F939F935D
:1013C000AF93BF93EF93FF9348E950E064E970E077
:1013D00082E090E0B5DBFF91EF91BF91AF919F91DB
:1013E0008F917F916F915F914F913F912F910F90CE
:1013F0000BBE0F900FBE0F901F9018951F920F926B
:101400000FB60F9211240BB60F922F933F934F9369
:101410005F936F937F938F939F93AF93BF93EF935C
:10142000FF9348E850E064E870E081E090E088DBFA
:10143000FF91EF91BF91AF919F918F917F916F91AC
:101440005F914F913F912F910F900BBE0F900FBE68
:101450000F901F901895CF93DF9300D000D0CDB799
:10146000DEB7789484B5826084BD84B5816084BD24
:1014700085B5826085BD85B5816085BD80916E0032
:10148000816080936E001092810080918100826063
:1014900080938100809181008160809381008091A0
:1014A00080008160809380008091B100846080938F
:1014B000B1008091B00081608093B0008091910074
:1014C000826080939100809191008160809391006F
:1014D000809190008160809390008091A100826053
:1014E0008093A1008091A10081608093A1008091F0
:1014F000A00081608093A000809121018260809390
:10150000210180912101816080932101809120013E
:1015100081608093200180917A00846080937A00BA
:1015200080917A00826080937A0080917A00816055
:1015300080937A0080917A00806880937A0010927C
:10154000C1008091E503803308F050C061E082E083
:10155000B7D88091E503282F30E0F901EE0FFF1F87
:10156000E20FF31FEB5AFC4F9081907C92609083C6
:101570001092E6031092E7032CE0622FFDD4829FC5
:10158000B001112430E020E0AB01420F531FFA01FB
:10159000EE0FFF1FE40FF51FEB5AFC4F908196FDF5
:1015A00017C02F5F3F4F2C30310571F7813009F0A4
:1015B00073C01092800082E08093810010928500B9
:1015C00010928400B19A80916F00826080936F00C6
:1015D000E091E5038E2F90E0FC01EE0FFF1FE80F76
:1015E000F91FEB5AFC4F80818064808390E080E09B
:1015F0000E94370161E087E163D861E084E060D850
:1016000061E083E05DD882E044DC60E270E088EE77
:1016100093E00FDD61E083E00E94EC02412C512C4D
:101620003201439440E0A42E40E0B42E51E05093A8
:1016300032038FB7F8944091C2025091C302609177
:10164000C4027091C5028FBF809122039091230341
:10165000A0912403B0912503481B590B6A0B7B0B07
:1016600080912E0390912F03B0E0A0E0841795079E
:10167000A607B70708F043C110E080912C031817A4
:10168000B8F5E0912803F0912903E10FF11D62E024
:10169000808116D81F5FF1CF823061F410929000E4
:1016A00080939100109295001092940088BB8093D3
:1016B00071008ECF833069F41092A00082E0809395
:1016C000A1001092A5001092A40089BB8093720023
:1016D0007FCF81117DCF1092200182E08093210184
:1016E00010922501109224018ABB8093730070CF61
:1016F000312C80912D03381608F061C0E32CF12CB9
:10170000E0912A03F0912B03EE0DFF1D61E0808133
:101710000E946003E0912A03F0912B03EE0DFF1D60
:1017200060E080810E94EC02D301C201032C04C05E
:10173000880F991FAA1FBB1F0A94D2F74C016C0196
:10174000C094D094212C80912C03281608F5022DEA
:1017500010E0E0912803F0912903E00FF11F808150
:101760000E94C2020C5F1F4F000F111FF801EA53C5
:10177000FD4F892B41F4808191818829992991839A
:1017800080832394E0CF808191818C219D21F7CFAC
:10179000E0912A03F0912B03EE0DFF1D61E08081A3
:1017A0000E94EC0280912A0390912B03E80EF91E0F
:1017B00060E0F70180810E94600333949ACF06ECC9
:1017C00012E0F801878D90A1892B31F4148E8FEFF0
:1017D0009FEF968F858F11A2369693E0E230F9073E
:1017E00089F7D12C80912C03D81608F053C0C12C56
:1017F000ED2CF12CEE0CFF1CF701E253FD4F7F01A5
:1018000020912D03C21608F043C0F7016081718159
:101810000C2C02C0769567950A94E2F7D29E90014F
:1018200011242C0D311DE6ECF2E080E0458D568D43
:101830002417350709F447C28F5F36968A30B1F70F
:1018400060FF24C0E6ECF2E090E080E0448D4111BE
:1018500018C0E0912603F0912703E20FF31F4081A7
:1018600056E0589FF001599FF00D1124EA53FD4FA7
:10187000448F368F258F10A2178E61E00E94BF0122
:1018800005C0019636968A30910501F7C394B8CF0A
:10189000D394A8CF80E0F80191A19111892F0A5F1C
:1018A0001F4FF3E002301F07B1F79FB7F894409144
:1018B000C2025091C3026091C4027091C5029FBFE1
:1018C00040932203509323036093240370932503D2
:1018D0008823A9F0D090E702DD2089F08091E5020D
:1018E0009091E602019759F4F090E202F1100AC0DB
:1018F000A114B10409F49ACE0E94000097CE109270
:101900003203F6CFF9821A820091EC031091ED03B5
:101910000F5F1F4FB80188EE93E08BDB882391F0B7
:101920002091E8033091E9038091EC039091ED035D
:10193000BE016F5F7F4F820F931F45D51093ED035C
:101940000093EC030091EC031091ED031093C1029E
:101950000093C00241E06F2D8EEE93E041DA7801F2
:1019600052E0E51AF108A801B701CE010196BCDBEF
:1019700062E372E0CE01019647DBC82ECE010196EC
:10198000E9D9CC2009F43DC0A70170E060E0CE01A8
:101990000196AADB89819A81009761F155D27093F3
:1019A000140260931302CE010196D4D981E000DBCA
:1019B00085E392E080D983E492E07DD980E0F8DA93
:1019C0006091130270911402072E000C880B990B82
:1019D00097FF14C0FFDA83E492E06DD968EE73E0FC
:1019E00080E090E07DD84EDA65E472E088EE93E026
:1019F00072DB7ECF60E070E0CB01D1CF4AE067D9E7
:101A0000EACFA801B701CE0101966EDB66E472E071
:101A1000CE010196F9DAC82ECE0101969BD9CC20D1
:101A200009F449C0A70170E060E0CE0101965CDBDB
:101A30008091BA029091BB02009731F169817A815D
:101A40006115710501F14091BC025091BD022D81DB
:101A50003E8142175307B8F0B6D48D819E81909392
:101A6000BF028093BE021E821D82CE01019672D9F2
:101A700081E09EDA89E492E01ED983E492E01BD9EA
:101A800080E096DAABCF28D389819A819093BB020C
:101A90008093BA028B819C819093BD028093BC029B
:101AA0008D819E819093BF028093BE021A8219821B
:101AB0001C821B82D8CFA801B701CE01019614DB8E
:101AC0006AE572E0CE0101969FDA182FCE010196E9
:101AD00041D9112309F4E2C0A70170E060E0CE0112
:101AE000019602DB2091BE023091BF028D819E8162
:101AF0002817390709F58091BA029091BB026981D4
:101B00007A81009751F06115710509F06DC0232BA2
:101B1000A1F0FC01808190E00BC06115710569F0B6
:101B2000232B59F0FB01808190E0919581959109DB
:101B3000DD24D394892B09F0D12CCE0101960AD94A
:101B400081E0DD2009F48CC033DA8DE592E0B3D872
:101B500080E02EDA0E949C0384EB90E00E94370123
:101B600060E083E00E94EC0261E084E00E94EC020D
:101B700068EE73E080E090E00E94700587E10E94CB
:101B80001C0380D98AE692E096D868EE73E080E084
:101B900090E00E94700576D9C0901302D090140294
:101BA0000D2C000CEE08FF08F7FC1ECF85E00E940C
:101BB000C202892BD9F466D981E0FAD98CE792E088
:101BC0007AD880E0F5D990E080E00E94370160E0AB
:101BD00084E00E94EC0261E083E00E94EC0260ED90
:101BE00077E080E090E0FECEE5D3A2CF4AE0C701E7
:101BF000B6016DD883E492E05ED880E0D9D968EE72
:101C000073E080E090E00E947005C114D104E1040B
:101C1000F10401F581E0CCD988E892E04CD86CE27F
:101C200071E080E090E00E94700580E0C1D990E012
:101C300080E00E94370160E084E00E94EC0261E0F5
:101C400083E00E94EC026CE271E080E090E00E9490
:101C5000700518D9F1E0CF1AD108E108F108A4CF36
:101C6000A7D988E992E027D880E0A2D90E949C03F6
:101C700090E080E00E94370160E084E00E94EC0286
:101C800061E083E00E94EC0268EE73E080E090E0A7
:101C90000E94700587E10E941C03A5CE4091EC03D1
:101CA0005091ED03B701CE0101961EDA67EA72E0AA
:101CB000CE010196A9D9182FCE0101964BD8112338
:101CC00009F416CE90CE6170D9CD8091B0028033E8
:101CD00008F0AEC091E0980F9093B0028093E503B6
:101CE00090E0FC01EE0FFF1FE80FF91FEB5AFC4FCD
:101CF00088EB9BE0928381831092F1031092F003B2
:101D00008AE292E09093EF038093EE038DE080935C
:101D1000F2038FEF8093F3038CE08093F4038BE066
:101D20008093F5038AE08093F60389E08093F703BC
:101D300088E08093F8031092F9031092FA0310924E
:101D4000FB031092FC031092FD0381E0A2D81092D5
:101D5000C8021092CC021092CB021092CD0280E207
:101D600092E09093C7028093C602E2EEF2E0108206
:101D7000148213821582369683E0EE31F807B9F7A4
:101D800083E092E0909329038093280380E092E01F
:101D900090932B0380932A0384E080932C0383E0A9
:101DA00080932D0387E092E090932703809326038E
:101DB0008AE090E090932F0380932E0384EF91E0CC
:101DC00090933103809330031092340310923303C5
:101DD00010922203109223031092240310922503E1
:101DE000109232031092BB021092BA021092BD02FE
:101DF0001092BC021092BF021092BE0244E050E06A
:101E00006AEA72E08AEB92E03CD91092E903109200
:101E1000E8031092EB031092EA031092ED03109284
:101E2000EC0350E040E065E472E088EE93E029C9FD
:101E30008FEF8093E50360CF88EE93E00E94AA06BF
:101E40008AEB92E00C94AA061F93FC01992788273D
:101E5000BC01E89411911032E9F3193010F01E30F2
:101E6000C8F31B3249F01D3241F4689405C012D00A
:101E7000610F711D811D911D119110531A30B8F31E
:101E80003EF490958095709561957F4F8F4F9F4F51
:101E90001F910895592F482F372F262F660F771F30
:101EA000881F991F660F771F881F991F620F731F66
:101EB000841F951F660F771F881F991F0895052E91
:101EC00097FB16F400940FD057FD05D024D007FCE3
:101ED00002D046F408C050954095309521953F4F6B
:101EE0004F4F5F4F089590958095709561957F4F06
:101EF0008F4F9F4F089531D0A59F900DB49F900DA7
:101F0000A49F800D911D11240895B7FFF4CFF3DF36
:101F1000821B930B0895A1E21A2EAA1BBB1BFD0185
:101F20000DC0AA1FBB1FEE1FFF1FA217B307E407B8
:101F3000F50720F0A21BB30BE40BF50B661F771F10
:101F4000881F991F1A9469F76095709580959095F0
:101F50009B01AC01BD01CF010895A29FB001B39FC9
:101F6000C001A39F700D811D1124911DB29F700DA2
:101F7000811D1124911D0895991B79E004C0991FBA
:101F8000961708F0961B881F7A95C9F780950895D3
:101F9000EE0FFF1F881F8BBF0790F691E02D19945D
:101FA0000F931F93CF93DF938230910510F482E05B
:101FB00090E0E0910804F091090430E020E0B0E006
:101FC000A0E0309799F42115310509F44AC0281B87
:101FD000390B24303105D8F58A819B816115710553
:101FE00089F1FB0193838283FE0111C040815181FD
:101FF0000281138148175907E0F04817590799F4EF
:10200000109761F012960C93129713961C933296C8
:10201000CF01DF91CF911F910F9108950093080494
:1020200010930904F4CF2115310551F042175307DD
:1020300038F0A901DB019A01BD01DF01F801C1CF30
:10204000EF01F9CF9093090480930804CDCFFE01EE
:10205000E20FF31F81939193225031093983288332
:10206000D7CF2091060430910704232B41F420910F
:10207000180230911902309307042093060420912E
:102080001602309117022115310541F42DB73EB7E4
:1020900040911A0250911B02241B350BE09106045B
:1020A000F0910704E217F307A0F42E1B3F0B28174B
:1020B000390778F0AC014E5F5F4F2417350748F0C1
:1020C0004E0F5F1F50930704409306048193919332
:1020D0009FCFF0E0E0E09CCFCF93DF930097E9F053
:1020E000FC01329713821282A0910804B091090476
:1020F000ED0130E020E01097A1F420813181820FC2
:10210000931F20910604309107042817390709F01E
:1021100061C0F0930704E0930604DF91CF91089526
:10212000EA01CE17DF07E8F54A815B819E01411580
:102130005105B1F7E901FB83EA8349915991C40F35
:10214000D51FEC17FD0761F4808191810296840F01
:10215000951FE90199838883828193819B838A8378
:10216000F0E0E0E012968D919C9113970097B9F5FD
:102170002D913C911197CD010296820F931F2091D2
:102180000604309107042817390739F6309751F5BE
:102190001092090410920804B0930704A093060457
:1021A000BCCFD383C28340815181840F951FC81750
:1021B000D90761F44E5F5F4F88819981480F591F9D
:1021C000518340838A819B819383828321153105CA
:1021D00009F0B0CFF0930904E09308049ECFFD010D
:1021E000DC01C0CF13821282D7CF4F925F926F92E1
:1021F0007F928F929F92AF92BF92CF92DF92EF9297
:10220000FF920F931F93CF93DF938C01009791F46C
:10221000CB01DF91CF911F910F91FF90EF90DF9055
:10222000CF90BF90AF909F908F907F906F905F9076
:102230004F90B6CEFC01E60FF71F9C0122503109EA
:10224000E217F30708F4AAC0D901CD91DC911197E8
:10225000C617D70718F1C530D10570F0CE01049725
:102260008617970748F0C61BD70B2297C193D193C7
:102270006D937C93CF0130DFC801DF91CF911F9127
:102280000F91FF90EF90DF90CF90BF90AF909F9015
:102290008F907F906F905F904F9008955B01AC1A84
:1022A000BD0A4C018C0E9D1EA0910804B09109043A
:1022B000512C412CF12CE12C109731F58091060422
:1022C000909107048815990509F05CC046165706D9
:1022D00008F058C08091160290911702009741F4BF
:1022E0008DB79EB740911A0250911B02841B950B2B
:1022F000E817F90708F052C0F0930704E0930604CA
:10230000F90171836083B8CF8D919C9111971296DA
:102310006C90129713967C901397A815B90559F5F0
:102320006C0142E0C40ED11CCA14DB0420F1AC01E4
:102330004A195B09DA011296159780F0628273825E
:1023400051834083D9016D937C93E114F10471F0C2
:10235000D7011396FC93EE9312978ECF22968C0F93
:102360009D1FF90191838083F301EFCFF09309045E
:10237000E093080481CF4816590608F42C017D012A
:10238000D3019ACFCB010CDE7C01009739F0AE016E
:10239000B80107D0C801A0DE87016ECF10E000E0D1
:1023A0006BCFFB01DC0102C001900D924150504007
:1023B000D8F70895FB01DC018D910190801901107F
:1023C000D9F3990B0895FB01DC0101900D920020D7
:1023D000E1F7089511E0C4E0D1E000E005C0802FEE
:1023E000FE01D6DD2196011DC530D10780E008072A
:0623F000B1F7F894FFCFE5
:1023F60024252616181A1C31323334353637383927
:102406002A30230A00FF00000A04800000000000B2
:1024160048051903EA0200000000E5072E025806E7
:102426002D02232A004E65772074696D657220732C
:102436006574000D0A002A23004E657720706173CB
:1024460073776F726420736574002A2A00436F7273
:1024560072656374207061737300436F756E746484
:102466006F776E20626567696E733A0047616765CC
:10247600204C4F434B45440054696D6520697320D9
:102486006578706972656400496E636F7272656320
:1024960074207061737300232300313233340000DB
:020000023000CC
:10E000000D9489F10D94B2F10D94B2F10D94B2F129
:10E010000D94B2F10D94B2F10D94B2F10D94B2F1F0
:10E020000D94B2F10D94B2F10D94B2F10D94B2F1E0
:10E030000D94B2F10D94B2F10D94B2F10D94B2F1D0
:10E040000D94B2F10D94B2F10D94B2F10D94B2F1C0
:10E050000D94B2F10D94B2F10D94B2F10D94B2F1B0
:10E060000D94B2F10D94B2F10D94B2F10D94B2F1A0
:10E070000D94B2F10D94B2F10D94B2F10D94B2F190
:10E080000D94B2F10D94B2F10D94B2F10D94B2F180
:10E090000D94B2F10D94B2F10D94B2F10D94B2F170
:10E0A0000D94B2F10D94B2F10D94B2F10D94B2F160
:10E0B0000D94B2F10D94B2F10D94B2F10D94B2F150
:10E0C0000D94B2F10D94B2F10D94B2F10D94B2F140
:10E0D0000D94B2F10D94B2F10D94B2F10D94B2F130
:10E0E0000D94B2F141546D656761323536300041AF
:10E0F000726475696E6F206578706C6F72657220DE
:10E1000073746B3530305632206279204D4C530099
:10E11000426F6F746C6F616465723E004875683F52
:10E1200000436F6D70696C6564206F6E203D200048
:10E130004350552054797065202020203D20005FF9
:10E140005F4156525F415243485F5F3D2000415658
:10E1500052204C696243205665723D20004743437C
:10E160002056657273696F6E203D20004350552024
:10E1700049442020202020203D20004C6F7720663D
:10E18000757365202020203D20004869676820665F
:10E190007573652020203D200045787420667573D6
:10E1A00065202020203D20004C6F636B2066757336
:10E1B000652020203D20004D617220203720323024
:10E1C000313300312E362E3800342E332E350056A2
:10E1D00023202020414444522020206F7020636F70
:10E1E00064652020202020696E73747275637469E1
:10E1F0006F6E2061646472202020496E74657272B3
:10E20000757074006E6F20766563746F7200726A49
:10E210006D702020006A6D70200057686174207056
:10E220006F72743A00506F7274206E6F7420737541
:10E2300070706F72746564004D7573742062652030
:10E2400061206C6574746572002000577269747483
:10E25000696E672045450052656164696E672045B7
:10E26000450045452065727220636E743D00504F35
:10E27000525400303D5A65726F2061646472003FF1
:10E280003D43505520737461747300403D454550C3
:10E29000524F4D207465737400423D426C696E6B41
:10E2A000204C454400453D44756D70204545505215
:10E2B0004F4D00463D44756D7020464C415348001B
:10E2C000483D48656C70004C3D4C69737420492F83
:10E2D0004F20506F72747300513D51756974005234
:10E2E0003D44756D702052414D00563D73686F7707
:10E2F00020696E7465727275707420566563746FF0
:10E30000727300593D506F727420626C696E6B00BD
:10E310002A0011241FBECFEFD1E2DEBFCDBF01E046
:10E320000CBF12E0A0E0B2E0EEE1FDEF03E00BBFB6
:10E3300002C007900D92A030B107D9F712E0A0E01B
:10E34000B2E001C01D92AE30B107E1F70F9460F367
:10E350000D948DFE01E20EBF0FEF0DBF11241FBE05
:10E360000D9460F30D9400F020E030E040ED57E0B4
:10E3700005C0FA013197F1F72F5F3F4F2817390792
:10E38000C0F308959C01260F311DC901A0E0B0E043
:10E390002F5F3F4FABBFFC018791882361F08093D3
:10E3A000C6008091C00086FFFCCF8091C0008064D1
:10E3B0008093C000EACF08958DE08093C6008091DD
:10E3C000C00086FFFCCF8091C00080648093C000B5
:10E3D0008AE08093C6008091C00086FFFCCF8091C8
:10E3E000C00080648093C00008950F94C2F10F9420
:10E3F000DCF10895FC019081992359F09093C600B7
:10E400008091C00086FFFCCF8091C0008064809323
:10E41000C0003196992379F70895282F982F929567
:10E420009F70892F805D8A3308F0895F8093C600D2
:10E430008091C00086FFFCCF8091C00080648093F3
:10E44000C000822F8F70982F905D9A3308F0995FEB
:10E450009093C6008091C00086FFFCCF8091C000E1
:10E4600080648093C00008959C01FB01853691056E
:10E470001CF46330710594F0C90164E670E00F94F8
:10E480002EFE605D7F4F6093C6008091C00086FFC6
:10E49000FCCF8091C00080648093C0002B30310598
:10E4A00014F43297B4F0C90164E670E00F942EFEC4
:10E4B0006AE070E00F942EFE605D7F4F6093C600AF
:10E4C0008091C00086FFFCCF8091C0008064809363
:10E4D000C000C9016AE070E00F942EFEC0968093E0
:10E4E000C6008091C00086FFFCCF8091C000806490
:10E4F0008093C00008951F93182F8EE692EE60E07F
:10E500000F94C2F11093C6008091C00086FFFCCF2B
:10E510008091C00080648093C0000F94DCF11F9153
:10E5200008952F923F924F925F926F927F928F92B7
:10E530009F92AF92BF92CF92DF92EF92FF920F9392
:10E540001F93DF93CF93CDB7DEB762970FB6F894E2
:10E55000DEBF0FBECDBF382E622ECA01DB015C01CB
:10E560006D01772420E2222E2E010894411C511CBB
:10E570008BC081E0A81680E0B80681E0C80680E084
:10E58000D80628F0C601AA27BB270F940DF2BB2797
:10E59000AD2D9C2D8B2D0F940DF28A2D0F940DF225
:10E5A0002092C6008091C00086FFFCCF8091C00001
:10E5B00080648093C0009DE29093C6008091C0006B
:10E5C00086FFFCCF8091C00080648093C0002092C1
:10E5D000C6008091C00086FFFCCF8091C00080649F
:10E5E0008093C00019828601750188249924A1E0D6
:10E5F0003A1651F03A1620F0B2E03B1661F409C029
:10E600000BBFF701779007C0C7010F9477FE782EF4
:10E6100002C0F7017080872D0F940DF22092C60082
:10E620008091C00086FFFCCF8091C0008064809301
:10E63000C000872D8052F401EF70F0708F3520F408
:10E64000E40DF51D708204C0E40DF51D8EE280839B
:10E650000894E11CF11C011D111D0894811C911CE2
:10E6600090E18916910409F0C2CF80E190E0A0E02A
:10E67000B0E0A80EB91ECA1EDB1E198AC2010F9493
:10E68000FAF10F94DCF16A94662009F072CF629679
:10E690000FB6F894DEBF0FBECDBFCF91DF911F91B3
:10E6A0000F91FF90EF90DF90CF90BF90AF909F9031
:10E6B0008F907F906F905F904F903F902F90089534
:10E6C0002F923F924F925F926F927F928F929F9282
:10E6D000AF92BF92CF92DF92EF92FF920F931F9370
:10E6E000DF93CF93CDB7DEB7CD53D1400FB6F894BB
:10E6F000DEBF0FBECDBF01E20EBF0FEF0DBF94B75F
:10E70000F894A89514BE80916000886180936000A1
:10E7100010926000789493FF05C0E0910002F091A0
:10E7200001021995279A2F9A8091C00082608093E8
:10E73000C00080E18093C40088E18093C1000000A4
:10E74000EE24FF24870144E0A42EB12CCC24DD2448
:10E7500024C0C5010197F1F70894E11CF11C011DCB
:10E76000111D21E2E2162EE4F20620E0020720E06D
:10E77000120718F031E0C32ED12CC801B70127ECE5
:10E780003BE140E050E00F9441FE611571058105C9
:10E79000910519F485B1805885B98091C00087FD35
:10E7A00003C0C114D104A9F2A6014F5F5F4FC25E3E
:10E7B000DE4F59834883CE51D140C25EDE4F8881FF
:10E7C0009981CE51D140019711F00D9410FEC05D9A
:10E7D000DE4F19821882C053D14060E0C15DDE4F28
:10E7E0001882CF52D14088249924C35DDE4F19820C
:10E7F0001882CD52D140C05EDE4F188219821A8233
:10E800001B82C052D140CE5CDE4F188219821A8220
:10E810001B82C253D140EE24FF2487010BBFF701B6
:10E8200007911691C45CDE4F19830883CC53D14005
:10E830000D940BFEC25EDE4F28813981CE51D1404E
:10E840002130310509F52091C600C25EDE4F1982E4
:10E850001882CE51D14022C02F5F3F4F4F4F5F4FA4
:10E86000213082E138078AE7480780E0580780F0C6
:10E87000C45CDE4FE881F981CC53D140EF5FFF4F9C
:10E8800019F0EE27FF27099420E030E040E050E047
:10E890008091C00087FFE0CF2091C600C35DDE4FAE
:10E8A00048815981CD52D1404F5F5F4FC35DDE4FEC
:10E8B00059834883CD52D140213209F063C64A3092
:10E8C000510508F05FC60894811C911C53E0851621
:10E8D000910409F059C600E010E018C081E280936D
:10E8E000C6008091C00086FFFCCF8091C00080648C
:10E8F0008093C0002F5F3F4F2931310579F70F9486
:10E90000DCF10F5F1F4F0530110519F020E030E0FA
:10E91000E5CF10920A0210920B0210920C02109294
:10E920000D02109206021092070210920802109235
:10E930000902109202021092030210920402109235
:10E9400005028FEE90EE60E00F94F5F180E191EE1C
:10E9500060E00F94C2F18091C00087FFFCCF9091DE
:10E96000C600903608F09F759032B8F09093C600BC
:10E970008091C00086FFFCCF8091C00080648093AE
:10E98000C000A0E2A093C6008091C00086FFFCCF2B
:10E990008091C00080648093C000983409F4D7C18E
:10E9A0009934B8F4923409F459C1933458F490333B
:10E9B00019F1903308F4E3C59F33A1F1903409F0C5
:10E9C000DEC5BDC0953409F470C1963409F0D7C5D1
:10E9D00098C1923509F42BC2933538F49C3409F46C
:10E9E000F5C1913509F0CBC518C2963509F445C279
:10E9F000993509F0C4C567C483E792EE62E00F94CD
:10EA0000F5F110920602109207021092080210927D
:10EA1000090210920A0210920B0210920C0210923C
:10EA20000D0213C18FE792EE62E00F94F5F18FEEC5
:10EA300090EE60E00F94F5F181E291EE60E00F94CA
:10EA4000C2F187EB91EE60E00F94F5F180E391EE77
:10EA500060E00F94C2F184EE90EE60E00F94F5F167
:10EA60008FE391EE60E00F94C2F186E090E061E008
:10EA700070E00F9434F20F94DCF18DE591EE60E0DC
:10EA80000F94C2F189EC91EE60E00F94F5F18EE401
:10EA900091EE60E00F94C2F183EC91EE60E00F9490
:10EAA000F5F18CE691EE60E00F94C2F18EE10F94E7
:10EAB0000DF288E90F940DF281E00F940DF20F949E
:10EAC000DCF18BE791EE60E00F94C2F119E0E0E039
:10EAD000F0E010935700E4918E2F0F940DF20F94F5
:10EAE000DCF18AE891EE60E00F94C2F1E3E0F0E03F
:10EAF00010935700E4918E2F0F940DF20F94DCF1D8
:10EB000089E991EE60E00F94C2F1E2E0F0E0109349
:10EB10005700E4918E2F0F940DF20F94DCF188EAE8
:10EB200091EE60E00F94C2F1E1E0F0E01093570045
:10EB30001491812F0F940DF20F94DCF107CF8BE825
:10EB400092EE62E00F94F5F18BE492EE60E00F94A8
:10EB5000F5F10F94DCF100E010E019C0C8016F2D51
:10EB60000F947FFEFF2031F489E492EE60E00F9471
:10EB7000C2F10BC0F092C6008091C00086FFFCCFAE
:10EB80008091C00080648093C0000F5F1F4FC80158
:10EB900081519F41A0E0B0E0ABBFFC01F790BAE229
:10EBA000FB1621F0E2E000301E07C1F60F94DCF105
:10EBB0000F94DCF187E592EE60E00F94F5F10F948D
:10EBC000DCF1CC24DD2400E010E01EC0C8010F946D
:10EBD00077FEF82E882331F489E492EE60E00F94FA
:10EBE000C2F10BC08093C6008091C00086FFFCCFAD
:10EBF0008091C00080648093C000FE1419F00894D6
:10EC0000C11CD11C0F5F1F4FC80181519F41A0E063
:10EC1000B0E0ABBFFC01E790FAE2EF1621F022E092
:10EC20000030120799F60F94DCF10F94DCF182E6C4
:10EC300092EE60E00F94C2F1C60161E070E00F94C3
:10EC400034F20F94DCF10F94DCF110920202109276
:10EC50000302109204021092050278CE89E992EE26
:10EC600062E00F94F5F1279A2F9A16C02F9880E052
:10EC700090E0E0EDF7E03197F1F7019684369105E9
:10EC8000C1F72F9A80E090E0E0EDF7E03197F1F7DF
:10EC9000019684369105C1F78091C00087FFE6CFC9
:10ECA0008091C00087FFFCCF64C485EA92EE62E0E9
:10ECB0000F94F5F140910202509103026091040219
:10ECC0007091050281E020E10F9491F2809102029F
:10ECD00090910302A0910402B091050280509F4FD1
:10ECE000AF4FBF4F8093020290930302A0930402A0
:10ECF000B093050280509041A040B04008F426CE69
:10ED0000A4CF83EB92EE62E00F94F5F140910602FE
:10ED100050910702609108027091090280E020E1A1
:10ED20000F9491F28091060290910702A09108023F
:10ED3000B091090280509F4FAF4FBF4F80930602A2
:10ED400090930702A0930802B0930902FFCD80ECD4
:10ED500092EE62E00F94F5F183E792EE60E00F949B
:10ED6000F5F18FE792EE60E00F94F5F18BE892EE0B
:10ED700060E00F94F5F189E992EE60E00F94F5F10F
:10ED800085EA92EE60E00F94F5F183EB92EE60E09D
:10ED90000F94F5F180EC92EE60E00F94F5F187ECC2
:10EDA00092EE60E00F94F5F188ED92EE60E00F9442
:10EDB000F5F18FED92EE60E00F94F5F18AEE92EEB0
:10EDC00060E00F94F5F183E093EEBDCD87EC92EE19
:10EDD00062E00F94F5F181E40F947BF282E40F94EA
:10EDE0007BF283E40F947BF284E40F947BF285E45E
:10EDF0000F947BF286E40F947BF287E40F947BF20E
:10EE000088E40F947BF28AE40F947BF28BE40F94F6
:10EE10007BF28CE40F947BF299CD88ED92EE62E068
:10EE20000F94F5F1772473948824992409C48FED05
:10EE300092EE62E00F94F5F140910A0250910B02BC
:10EE400060910C0270910D0282E020E10F9491F22A
:10EE500080910A0290910B02A0910C02B0910D02D8
:10EE600080509F4FAF4FBF4F80930A0290930B0289
:10EE7000A0930C02B0930D0269CD8AEE92EE62E08F
:10EE80000F94F5F184EE90EE60E00F94F5F18FECC5
:10EE900091EE60E00F94F5F1662477244301CC5D98
:10EEA000DE4F19821882C452D140D401C301B695F5
:10EEB000A79597958795CA5DDE4F88839983AA8326
:10EEC000BB83C652D140CC5DDE4FA881B981C4520C
:10EED000D1401196CC5DDE4FB983A883C452D14096
:10EEE000CD0162E070E00F9434F2B0E2B093C6005E
:10EEF0008091C00086FFFCCF8091C0008064809329
:10EF0000C000EDE2E093C6008091C00086FFFCCF18
:10EF10008091C00080648093C000F0E2F093C6004E
:10EF20008091C00086FFFCCF8091C00080648093F8
:10EF3000C000CA5DDE4FE880F9800A811B81C6529D
:10EF4000D140BB27A12F902F8F2D0F940DF2CA5DBA
:10EF5000DE4F8881C652D1400F940DF2B0E2FB2EF5
:10EF6000F092C6008091C00086FFFCCF8091C00067
:10EF700080648093C0000DE30093C6008091C000C0
:10EF800086FFFCCF8091C00080648093C00010E2B7
:10EF90001093C6008091C00086FFFCCF8091C00016
:10EFA00080648093C0008BBEF3012791C65DDE4F65
:10EFB0002883CA52D140A22EBB24CC24DD2408943D
:10EFC000611C711C811C911C8BBEF3018791282E42
:10EFD0003324442455240894611C711C811C911C09
:10EFE0008BBEF3013791C55DDE4F3883CB52D140E4
:10EFF0000894611C711C811C911C8BBEF30147910C
:10F00000C45DDE4F4883CC52D140ADEFEA2EAFEF66
:10F01000FA2EAFEF0A2FAFEF1A2F6E0C7F1C801E57
:10F02000911E142D032DF22CEE24EA0CFB1C0C1D5A
:10F030001D1D0F940DF220E22093C6008091C000A8
:10F0400086FFFCCF8091C00080648093C000C65DC5
:10F05000DE4F8881CA52D1400F940DF230E23093D6
:10F06000C6008091C00086FFFCCF8091C000806404
:10F070008093C000C45DDE4F8881CC52D1400F9494
:10F080000DF240E24093C6008091C00086FFFCCFA5
:10F090008091C00080648093C000C55DDE4F888190
:10F0A000CB52D1400F940DF250E25093C6008091A4
:10F0B000C00086FFFCCF8091C00080648093C000B8
:10F0C0008FEFE8168FEFF80680E0080780E018075A
:10F0D00031F484E092EE60E00F94C2F1DFC0D80119
:10F0E000C7018070907CA070B0708050904CA040A0
:10F0F000B040D1F52FEF3FE340E050E0E222F322B1
:10F1000004231523CA5DDE4FA880B980CA80DB8046
:10F11000C652D140AE0CBF1CC01ED11EAA0CBB1CD7
:10F12000CC1CDD1C8EE092EE60E00F94C2F1BB2798
:10F13000A12F902F8F2D0F940DF28E2D0F940DF285
:10F1400030E23093C6008091C00086FFFCCF8091F2
:10F15000C00080648093C0004EE34093C60080915D
:10F16000C00086FFFCCF87C08EE09EEFA0E0B0E03D
:10F17000E822F9220A231B239CE0E91694E9F90608
:10F1800090E0090790E0190709F088C0C45DDE4FE0
:10F19000A881CC52D140EA2EFF2400E010E0102FCD
:10F1A0000F2DFE2CEE24C55DDE4FB881CB52D14031
:10F1B000EB0EF11C011D111DD601C501817090706F
:10F1C000A070B070DC0199278827E80EF91E0A1F8D
:10F1D0001B1F20EF30E040E050E0A222B322C42207
:10F1E000D52241E1AA0CBB1CCC1CDD1C4A95D1F7F1
:10F1F000EA0CFB1C0C1D1D1D81E090E0A0E0B0E0BE
:10F20000282239224A225B2235E1220C331C441C7D
:10F21000551C3A95D1F7E20CF31C041D151D57013E
:10F220006801AA0CBB1CCC1CDD1C85E192EE60E0E1
:10F230000F94C2F1C801AA27BB270F940DF2BB2778
:10F24000A12F902F8F2D0F940DF28E2D0F940DF274
:10F2500090E29093C6008091C00086FFFCCF809121
:10F26000C00080648093C000AEE3A093C60080918C
:10F27000C00086FFFCCF8091C00080648093C000F6
:10F28000C601AA27BB270F940DF2BB27AD2D9C2DDD
:10F290008B2D0F940DF28A2D0F940DF20F94DCF14B
:10F2A000CC5DDE4FE881F981C452D140F99709F471
:10F2B0004DCBF4E0EF2EF12C012D112D6E0C7F1CA7
:10F2C000801E911EF2CD83E093EE62E00F94F5F183
:10F2D0008AE192EE60E00F94C2F18091C00087FF56
:10F2E000FCCF1091C6001F751093C6008091C0001E
:10F2F00086FFFCCF8091C00080648093C0000F9493
:10F30000DCF1812F81548A3108F036C1163409F4BA
:10F3100095C0173490F4133409F44EC0143430F40B
:10F320001134F1F0123409F01DC130C0143409F465
:10F3300059C0153409F016C16BC01A3409F4C4C0A1
:10F340001B3438F4173409F48FC0183409F00AC19B
:10F35000A1C01B3409F4D2C01C3409F003C1E8C0B9
:10F360008FEF81B90DC082B1809582B980E090E0C5
:10F37000E0EDF7E03197F1F70196883C9105C1F790
:10F380008091C00087FFEFCF12B8EFC08FEF84B934
:10F390000DC085B1809585B980E090E0E0EDF7E0A3
:10F3A0003197F1F70196883C9105C1F78091C00033
:10F3B00087FFEFCF15B8D9C08FEF87B90DC088B1DF
:10F3C000809588B980E090E0E0EDF7E03197F1F7C3
:10F3D0000196883C9105C1F78091C00087FFEFCF6F
:10F3E00018B8C3C08FEF8AB90DC08BB180958BB9A7
:10F3F00080E090E0E0EDF7E03197F1F70196883C8E
:10F400009105C1F78091C00087FFEFCF1BB8ADC059
:10F410008FEF8DB90DC08EB180958EB980E090E0F0
:10F42000E0EDF7E03197F1F70196883C9105C1F7DF
:10F430008091C00087FFEFCF1EB897C08FEF80BBD1
:10F440000DC081B3809581BB80E090E0E0EDF7E0F6
:10F450003197F1F70196883C9105C1F78091C00082
:10F4600087FFEFCF11BA81C08FEF83BB0DC084B38C
:10F47000809584BB80E090E0E0EDF7E03197F1F714
:10F480000196883C9105C1F78091C00087FFEFCFBE
:10F4900014BA6BC08FEF809301010FC080910201FD
:10F4A00080958093020180E090E0E0EDF7E03197F5
:10F4B000F1F70196883C9105C1F78091C00087FF64
:10F4C000EDCF1092020151C08FEF809304010FC065
:10F4D0008091050180958093050180E090E0E0ED4A
:10F4E000F7E03197F1F70196883C9105C1F78091DB
:10F4F000C00087FFEDCF1092050137C08FEF8093DA
:10F5000007010FC08091080180958093080180E079
:10F5100090E0E0EDF7E03197F1F70196883C910536
:10F52000C1F78091C00087FFEDCF109208011DC088
:10F530008FEF80930A010FC080910B01809580931B
:10F540000B0180E090E0E0EDF7E03197F1F70196F4
:10F55000883C9105C1F78091C00087FFEDCF1092E4
:10F560000B0103C085E292EEEEC98091C00087FFD7
:10F57000FCCF8091C600EAC988E392EEE4C98CE131
:10F5800091EEE1C988249924933011F1943028F444
:10F59000913089F09230B8F408C0953061F195301F
:10F5A000F0F0963009F048C043C02B3109F042C951
:10F5B00091E06BE13FC96227C15DDE4F2883CF52E6
:10F5C000D14092E037C9B22FA0E0622793E032C960
:10F5D000822F90E0A82BB92B622794E02BC92E3004
:10F5E00009F039C3622795E0C05DDE4F19821882A9
:10F5F000C053D1401FC9E1E0F0E0EC0FFD1FC05D3A
:10F60000DE4F08811981C053D140E00FF11F2083E4
:10F610000F5F1F4FC05DDE4F19830883C053D14079
:10F6200062270A171B0709F005C9D80196E002C92D
:10F63000261709F010C303C0973009F0FBC87724E0
:10F640009981933109F412C19431C8F4963009F4C8
:10F65000D8C0973050F4923009F406C1933009F4C1
:10F660006DC0913009F059C253C0913109F477C08F
:10F67000923108F0BBC0903109F04FC2F5C098310B
:10F6800009F487C0993150F4953109F4EFC09531F0
:10F6900008F4C6C1963109F040C2C2C19A3109F4DA
:10F6A0006CC09A3108F491C09B3109F45BC09D3164
:10F6B00009F033C29D81903359F48F81882311F46E
:10F6C0009EE11CC0813011F091E018C098E916C08D
:10F6D000892F807591F0903539F4E0E0F0E089E011
:10F6E0008093570094910AC0983539F4E3E0F0E034
:10F6F00089E080935700949101C090E01A821B82A8
:10F700008D818C831D829E831F8227E030E009C299
:10F710001A8288E08B8381E48C8386E58D8382E581
:10F720008E8389E48F8383E5888780E589878FE5E9
:10F730008A8782E38B872BE030E0F3C18A818139AD
:10F7400041F0823941F0803911F48FE005C080E04A
:10F7500003C082E001C08AE01A828B8344C0772410
:10F76000739482C08D81882311F48EE12CC0813086
:10F7700011F081E028C088E926C01A82E1E0F0E0BB
:10F7800089E08093570084918B831C8224E030E0D1
:10F79000C8C18B81803589F48C81883039F4E2E0EE
:10F7A000F0E089E08093570084910DC0E0E0F0E044
:10F7B00089E080935700849106C0E3E0F0E089E09F
:10F7C0008093570084911A82DFCF8D81836C99E0FA
:10F7D000E1E0F0E0082E90935700E89507B600FCB2
:10F7E000FDCF1A821B8223E030E09BC180EC8A832C
:10F7F000CE5CDE4F188219821A821B82C253D1401E
:10F800008EC18A8190E0A0E0B0E0582F44273327D2
:10F8100022278B8190E0A0E0B0E0DC0199278827C7
:10F82000282B392B4A2B5B2B8D8190E0A0E0B0E098
:10F83000282B392B4A2B5B2B8C8190E0A0E0B0E089
:10F84000BA2FA92F982F8827282B392B4A2B5B2BCF
:10F85000220F331F441F551FC05EDE4F288339839C
:10F860004A835B83C052D1401A8259C13A81C95C34
:10F87000DE4F3883C753D140CA5CDE4F1882C6536F
:10F88000D1408B81C82EDD24CA5CDE4F488159816E
:10F89000C653D140C42AD52A933109F082C0CE5C28
:10F8A000DE4F88819981AA81BB81C253D1408050AB
:10F8B000904CA340B04030F583E0CE5CDE4FE88052
:10F8C000F9800A811B81C253D140F70100935B008C
:10F8D00080935700E89507B600FCFDCFCE5CDE4F65
:10F8E000088119812A813B81C253D14000501F4FAA
:10F8F0002F4F3F4FCE5CDE4F088319832A833B8313
:10F90000C253D140C05EDE4F488159816A817B81FC
:10F91000C052D140DE011B9631E08C9111962C91A2
:10F9200011971296C75CDE4F2883C953D140C85C3B
:10F93000DE4F1882C853D14090E0C85CDE4FE881AA
:10F94000F981C853D1408E2B9F2B0C01FA01609393
:10F950005B0030935700E89511244E5F5F4F6F4F67
:10F960007F4F0EEFE02E0FEFF02ECE0CDF1CC114F8
:10F97000D10499F685E0C05EDE4F088119812A81A5
:10F980003B81C052D140F80120935B008093570027
:10F99000E89507B600FCFDCF81E180935700E8951C
:10F9A00035C0C05EDE4F88819981AA81BB81C0527B
:10F9B000D140B695A795979587957C018601ABE0D8
:10F9C000AA2EB12CAC0EBD1E0BC0D5016D915D01F0
:10F9D000C7010F947FFE0894E11CF11C01501040F8
:10F9E0000115110591F7A60160E070E0440F551F65
:10F9F000661F771FC05EDE4FE880F9800A811B8199
:10FA0000C052D1404E0D5F1D601F711F1A82C05E33
:10FA1000DE4F488359836A837B83C052D1407FC0C5
:10FA2000FA80C55CDE4FF882CB53D140C65CDE4F16
:10FA30001882CA53D1408B81C82EDD24C65CDE4FAC
:10FA400008811981CA53D140C02AD12A1A828981DA
:10FA5000BE016D5F7F4F843121F59601C05EDE4FA0
:10FA6000E880F9800A811B81C052D1400BBFF701A9
:10FA700087919691DB018C9311969C936E5F7F4FDB
:10FA8000D801C7010296A11DB11DC05EDE4F88835B
:10FA90009983AA83BB83C052D14022503040F1F6F3
:10FAA00036C0C05EDE4F288139814A815B81C052F9
:10FAB000D1400894C108D108760100E010E0089414
:10FAC000C11CD11C0894E11CF11C011D111DE20E8A
:10FAD000F31E041F151F21BDBB27A52F942F832FB5
:10FAE00082BD2F5F3F4F4F4F5F4FF89A80B5DB01CC
:10FAF0008D93BD012E153F054007510761F7C05E8C
:10FB0000DE4F288339834A835B83C052D1409601FC
:10FB10002D5F3F4FFB01108204C080EC8A8322E0FE
:10FB200030E08BE18093C6008091C00086FFFCCF5F
:10FB30008091C00080648093C000C15DDE4FF88179
:10FB4000CF52D140F093C6008091C00086FFFCCF19
:10FB50008091C00080648093C000432F3093C60022
:10FB60008091C00086FFFCCF8091C00080648093AC
:10FB7000C000922F2093C6008091C00086FFFCCF6A
:10FB80008091C00080648093C0008EE08093C600A6
:10FB90008091C00086FFFCCF8091C000806480937C
:10FBA000C00065E1C15DDE4FE880CF52D1406E25D7
:10FBB00069276427FE01319610C090819093C6009A
:10FBC0008091C00086FFFCCF31968091C000806498
:10FBD0008093C0006927215030402115310569F715
:10FBE0006093C6008091C00086FFFCCF8091C0006A
:10FBF00080648093C00085B1805885B9772081F4F6
:10FC0000C15DDE4F0881CF52D1400F5FC15DDE4F35
:10FC10000883CF52D14090E0A0E0B0E00D941AF4F8
:10FC200027982F9880E090E020ED37E0F901319798
:10FC3000F1F7019684369105C9F700008091C00064
:10FC40008D7F8093C00081E180935700E895EE2777
:10FC5000FF270994FFCF90E00D941AF497FB092E2B
:10FC600007260AD077FD04D02ED006D000201AF443
:10FC7000709561957F4F0895F6F7909581959F4F08
:10FC80000895A1E21A2EAA1BBB1BFD010DC0AA1FDD
:10FC9000BB1FEE1FFF1FA217B307E407F50720F0F5
:10FCA000A21BB30BE40BF50B661F771F881F991F70
:10FCB0001A9469F760957095809590959B01AC01B9
:10FCC000BD01CF010895AA1BBB1B51E107C0AA1FAC
:10FCD000BB1FA617B70710F0A61BB70B881F991FED
:10FCE0005A95A9F780959095BC01CD010895F99991
:10FCF000FECF92BD81BDF89A992780B50895262F31
:10FD0000F999FECF1FBA92BD81BD20BD0FB6F89400
:0EFD1000FA9AF99A0FBE01960895F894FFCF63
:040000033000E000E9
:00000001FF
